{
  "contractName": "LikeVideo",
  "abi": [
    {
      "constant": false,
      "inputs": [
        {
          "name": "videoId",
          "type": "uint256"
        }
      ],
      "name": "like",
      "outputs": [
        {
          "name": "",
          "type": "uint256"
        }
      ],
      "payable": false,
      "stateMutability": "nonpayable",
      "type": "function"
    },
    {
      "constant": true,
      "inputs": [],
      "name": "getFans",
      "outputs": [
        {
          "name": "",
          "type": "address[16]"
        }
      ],
      "payable": false,
      "stateMutability": "view",
      "type": "function"
    }
  ],
  "bytecode": "0x6060604052341561000f57600080fd5b61022d8061001e6000396000f30060606040526004361061004c576000357c0100000000000000000000000000000000000000000000000000000000900463ffffffff1680630760943e14610051578063e82935da146100a2575b600080fd5b341561005c57600080fd5b6100646100d9565b6040518082601060200280838360005b8381101561008f578082015181840152602081019050610074565b5050505090500191505060405180910390f35b34156100ad57600080fd5b6100c3600480803590602001909190505061015a565b6040518082815260200191505060405180910390f35b6100e16101c2565b6000601080602002604051908101604052809291908260108015610150576020028201915b8160009054906101000a900473ffffffffffffffffffffffffffffffffffffffff1673ffffffffffffffffffffffffffffffffffffffff1681526020019060010190808311610106575b5050505050905090565b600080821015151561016b57600080fd5b3360008360108110151561017b57fe5b0160006101000a81548173ffffffffffffffffffffffffffffffffffffffff021916908373ffffffffffffffffffffffffffffffffffffffff160217905550819050919050565b610200604051908101604052806010905b600073ffffffffffffffffffffffffffffffffffffffff168152602001906001900390816101d357905050905600a165627a7a723058202b29903adb13601acad2778b13e4ec0f26a96caa83c6e34284daaa3f67f10f0e0029",
  "source": "pragma solidity ^0.4.18;\r\n\r\ncontract LikeVideo {\r\n    address[16] private fans;\r\n    \r\n    // Like video\r\n    function like(uint videoId) public returns (uint) {\r\n        require(videoId >= 0);\r\n        fans[videoId] = msg.sender;\r\n        \r\n        return videoId;\r\n    }\r\n  \r\n    // Retrieving the fans\r\n    function getFans() public view returns (address[16]) {\r\n        return fans;\r\n    }\r\n}",
  "sourcePath": "D:\\MyFirstDapp\\ipfs-video-streaming\\contracts\\LikeVideo.sol",
  "compiler": {
    "name": "solc",
    "version": "0.4.19+commit.c4cbbb05.Emscripten.clang"
  },
  "schemaVersion": "2.0.0",
  "updatedAt": "2018-03-09T13:41:07.096Z"
}